:100000000C942A000C94D6110C9447000C944700D1
:100010000C9447000C9447000C9447000C94470044
:100020000C9447000C9447000C9447000C94E22970
:100030000C9447000C9447000C9447000C94470024
:100040000C9447000C9447000C9447000C94470014
:100050000C94470011241FBECFE5D8E0DEBFCDBF12
:1000600011E0A0E6B0E0EAE0F9E502C005900D92EB
:10007000AE39B107D9F711E0AEE9B1E001C01D9288
:10008000A03AB107E1F70E949F280C94832C0C94AE
:100090000000EF92FF920F93DF93CF93CDB7DEB7BF
:1000A00060970FB6F894DEBF0FBECDBFA82F002318
:1000B00009F461C07E010894E11CF11C88E0F7019D
:1000C00011928A95E9F729833A834B835C836D8388
:1000D0007E83AF83988780E2801BE82FFF27E7FDB0
:1000E000F09549815A816B817C81181684F01986BC
:1000F0001A861B861C86882799278E1B9F0B04C097
:10010000440F551F661F771F8A95D2F728C0202FEE
:10011000332727FD3095DB01CA01022E04C0880F6A
:10012000991FAA1FBB1F0A94D2F789879A87AB87AA
:10013000BC8704C07695679557954795EA95D2F7A1
:100140008D819E81AF81B88504C0880F991FAA1F39
:10015000BB1F2A95D2F7482B592B6A2B7B2B4D8737
:100160005E876F87788B29853A854B855C856D85A1
:100170007E85AF8598898A2F60960FB6F894DEBF8A
:100180000FBECDBFCF91DF910F91FF90EF900895FB
:10019000EF92FF920F931F937B018C0120E030E0E0
:1001A00040E05FE40E943D0A88238CF0C801B7015B
:1001B00020E030E040E05FE40E94B5080E949D0A24
:1001C0009B01AC01205030404040504806C0C8015F
:1001D000B7010E949D0A9B01AC01B901CA011F91A0
:1001E0000F91FF90EF900895AEE5B0E0EAEFF0E0F8
:1001F0000C944C2CA8E04E010894811C911CF40135
:100200006A2E11926A94E9F729833A834B835C83BF
:100210006D837E838F839887CE010996FC011192AE
:10022000AA95E9F7A986BA86CB86DC86ED86FE8696
:100230000F87188B29843A844B845C84ED84FE8478
:100240000F85188969807A808B809C806DA67EA638
:100250008FA698AA6D807E808F809884E114F10427
:100260000105110509F0B3C36214730484049504F5
:1002700008F03DC100E0201600E0300601E0400635
:1002800000E0500688F41FEF2116310441045104A8
:1002900039F030F048E0E42EF12C012D112D18C07A
:1002A000EE24FF24870114C020E0221620E032064D
:1002B00020E0420621E0520630F038E1E32EF12C36
:1002C000012D112D05C020E1E22EF12C012D112D63
:1002D000D201C1010E2C04C0B695A79597958795BC
:1002E0000A94D2F783589F4FDC012C9180E290E072
:1002F000A0E0B0E08E199F09A00BB10B7C018D012D
:10030000E21AF10801091109E114F10401051105CE
:10031000A1F10E2C04C0220C331C441C551C0A9461
:10032000D2F7A40193010E2C04C0220F331F441FE7
:10033000551F0A94D2F780E290E08E199F096DA4B0
:100340007EA48FA498A804C0969487947794679409
:100350008A95D2F7622A732A842A952AADA4BEA46C
:10036000CFA4D8A804C0AA0CBB1CCC1CDD1CEA94EA
:10037000D2F7ADA6BEA6CFA6D8AA6201EE24FF246E
:10038000CDAADEAAEFAAF8AE9201810120703070EA
:1003900009AF1AAF2BAF3CAFC401B301A70196015F
:1003A0000E942A2C7B018C01C401B3012DA93EA916
:1003B0004FA958AD0E942A2CC901DA013C014D0118
:1003C000C401B30129AD3AAD4BAD5CAD0E940B2C1D
:1003D0009B01AC018701FF24EE24ADA4BEA4CFA4F1
:1003E000D8A8C601AA27BB2757016801A82AB92A9D
:1003F000CA2ADB2AA216B306C406D506E0F408947E
:100400006108710881089108A20CB31CC41CD51C9A
:10041000A214B304C404D50470F0A216B306C40633
:10042000D50648F408946108710881089108A20C67
:10043000B31CC41CD51CA21AB30AC40AD50AC6012F
:10044000B5012DA93EA94FA958AD0E942A2C7B01C8
:100450008C01C601B5012DA93EA94FA958AD0E9436
:100460002A2CC901DA015C016D01C601B50129AD73
:100470003AAD4BAD5CAD0E940B2C9B01AC018701EA
:10048000FF24EE248DA59EA5AFA5B8A9A070B070DD
:10049000E82AF92A0A2B1B2BE216F3060407150794
:1004A000C0F40894A108B108C108D108E20CF31CFB
:1004B000041D151DE214F3040405150550F0E216A1
:1004C000F3060407150728F40894A108B108C10829
:1004D000D108D3019927882786017501E82AF92ACE
:1004E0000A2B1B2BE9AAFAAA0BAB1CABCFC4211415
:1004F00031044104510471F461E070E080E090E067
:1005000020E030E040E050E00E942A2CC901DA01EE
:100510001C012D0100E0201600E0300601E040063D
:1005200000E0500688F41FEF211631044104510405
:1005300031F028F048E050E060E070E017C040E0A3
:1005400050E060E070E012C020E0221620E03206A9
:1005500020E0420621E0520628F048E150E060E049
:1005600070E004C040E150E060E070E0D201C10101
:10057000042E04C0B695A795979587950A94D2F74F
:1005800083589F4FDC012C91E0E2EE2EF12C012DDF
:10059000112DD801C701841B950BA60BB70B821B2D
:1005A0009109A109B1090097A105B10561F46401A0
:1005B0005301A218B308C408D50831E0632E712C8A
:1005C000812C912C1EC16F968FAF6F97082E04C09F
:1005D000220C331C441C551C0A94D2F7EE2DE81B48
:1005E000640153010E2E04C0D694C794B794A79407
:1005F0000A94D2F7A40193016F960FAC6F9704C0D1
:10060000220F331F441F551F0A94D2F76DA47EA4F6
:100610008FA498A80E2E04C096948794779467941C
:100620000A94D2F784017301E22AF32A042B152BD2
:10063000E9A6FAA60BA71CA73201882499249201E7
:1006400081012070307021960CAF1DAF2EAF3FAFEF
:100650002197C601B501A40193010E942A2C7B01B8
:100660008C01C601B501A40193010E942A2CC90185
:10067000DA0125968CAF9DAFAEAFBFAF2597BC0119
:10068000CD0121962CAD3DAD4EAD5FAD21970E94C1
:100690000B2C9B01AC018701FF24EE24A9A4BAA472
:1006A000CBA4DCA4C601AA27BB275C016D01AE2840
:1006B000BF28C02AD12AA216B306C406D50660F503
:1006C00025966CAD7DAD8EAD9FAD25976150704088
:1006D0008040904025966CAF7DAF8EAF9FAF259741
:1006E000A20CB31CC41CD51CA214B304C404D504AE
:1006F00098F0A216B306C406D50670F46150704097
:100700008040904025966CAF7DAF8EAF9FAF259710
:10071000A20CB31CC41CD51CA21AB30AC40AD50A65
:10072000C601B501A40193010E942A2C7B018C0112
:10073000C601B501A40193010E942A2CC901DA0166
:100740003C014D01C401B30121962CAD3DAD4EAD30
:100750005FAD21970E940B2C9B01AC018701FF2408
:10076000EE2489A59AA5ABA5BCA5A070B0705701D1
:100770006801A82AB92ACA2ADB2AA216B306C40627
:10078000D506E0F408946108710881089108A20C6C
:10079000B31CC41CD51CA214B304C404D50470F04B
:1007A000A216B306C406D50648F408946108710879
:1007B00081089108A20CB31CC41CD51C8DA59EA554
:1007C000AFA5B8A96F960FAC6F9704C0880F991F9B
:1007D000AA1FBB1F0A94D2F78DA79EA7AFA7B8ABDD
:1007E000A21AB30AC40AD50A2596ECACFDAC0EAD2C
:1007F0001FAD2597D70199278827682A792A8A2A41
:100800009B2A82012227332729960CAF1DAF2EAFDA
:100810003FAF2997A2019101407050702D962CAFE7
:100820003DAF4EAF5FAF2D97C601B50129962CADF8
:100830003DAD4EAD5FAD29970E942A2C7B018C0106
:10084000C601B50129962CAD3DAD4EAD5FAD2997E2
:100850000E942A2CC901DA0161968CAF9DAFAEAF20
:10086000BFAF6197BC01CD012D962CAD3DAD4EAD16
:100870005FAD2D970E940B2C9B01AC018701FF24DB
:10088000EE24ADA4BEA4CFA4D8A8C601AA27BB2736
:1008900057016801A82AB92ACA2ADB2AA216B30678
:1008A000C406D50660F561966CAD7DAD8EAD9FAD8D
:1008B0006197615070408040904061966CAF7DAF11
:1008C0008EAF9FAF6197A20CB31CC41CD51CA214A1
:1008D000B304C404D50498F0A216B306C406D50622
:1008E00070F4615070408040904061966CAF7DAF75
:1008F0008EAF9FAF6197A20CB31CC41CD51CA21A6B
:10090000B30AC40AD50AC601B50129962CAD3DAD7E
:100910004EAD5FAD29970E942A2C7B018C01C60148
:10092000B50129962CAD3DAD4EAD5FAD29970E9426
:100930002A2CC901DA015C016D01C601B5012D96B1
:100940002CAD3DAD4EAD5FAD2D970E940B2C9B01A4
:10095000AC018701FF24EE248DA59EA5AFA5B8A903
:10096000A070B070E82AF92A0A2B1B2BE216F306B6
:1009700004071507C0F40894A108B108C108D108FC
:10098000E20CF31C041D151DE214F3040405150507
:1009900050F0E216F3060407150728F40894A1089E
:1009A000B108C108D1086196ECACFDAC0EAD1FAD2D
:1009B0006197D7019927882796018501082B192B64
:1009C0002A2B3B2B09AB1AAB2BAB3CAB62C26E1490
:1009D0007F048006910608F451C220E0E21620E070
:1009E000F20621E0020720E0120788F43FEFE31649
:1009F000F1040105110531F028F048E050E060E015
:100A000070E017C040E050E060E070E012C040E0ED
:100A1000E41640E0F40640E0040741E0140728F043
:100A200048E150E060E070E004C040E150E060E088
:100A300070E0D801C701042E04C0B695A79597951C
:100A400087950A94D2F783589F4FDC012C9130E2AE
:100A5000A32EB12CC12CD12CD601C501841B950B22
:100A6000A60BB70B821B9109A109B1090097A1053B
:100A7000B10589F4E614F7040805190508F4F2C174
:100A80006DA47EA48FA498A86214730484049504B2
:100A900008F0E8C1F3C16E968FAF6E97082E04C0C0
:100AA000EE0CFF1C001F111F0A94D2F76A2D681B61
:100AB000D201C101062E04C0B695A79597958795DA
:100AC0000A94D2F75C016D01AE28BF28C02AD12A52
:100AD000ADA2BEA2CFA2D8A6720161016E960FACE4
:100AE0006E9704C0CC0CDD1CEE1CFF1C0A94D2F7E0
:100AF000C9A2DAA2EBA2FCA264015301062E04C033
:100B0000D694C794B794A7940A94D2F7D401C3019A
:100B10006E960FAC6E9704C0880F991FAA1FBB1F5B
:100B20000A94D2F7EDA4FEA40FA518A904C0169547
:100B30000795F794E7946A95D2F737014801682A38
:100B4000792A8A2A9B2A6D8E7E8E8F8E98A2EDA09E
:100B5000FEA00FA118A538018824992498018701C7
:100B60002070307065960CAF1DAF2EAF3FAF65970C
:100B7000C601B501A40193010E942A2C7B018C01BE
:100B8000C601B501A40193010E942A2CC901DA0112
:100B90001C012D01C201B10165962CAD3DAD4EADDC
:100BA0005FAD65970E940B2C9B01AC018701FF2470
:100BB000EE24AD8CBE8CCF8CD8A0C601AA27BB2753
:100BC00057016801A82AB92ACA2ADB2AA216B30645
:100BD000C406D50600F508942108310841085108DB
:100BE000EDA0FEA00FA118A5AE0CBF1CC01ED11E0B
:100BF000AE14BF04C006D10670F0A216B306C40638
:100C0000D50648F408942108310841085108AE0C73
:100C1000BF1CC01ED11EA21AB30AC40AD50AC6013F
:100C2000B501A40193010E942A2C7B018C01C6010D
:100C3000B501A40193010E942A2CC901DA013C01EB
:100C40004D01C401B30165962CAD3DAD4EAD5FAD18
:100C500065970E940B2C9B01AC018701FF24EE24B9
:100C60008D8D9E8DAF8DB8A1A070B07057016801B9
:100C7000A82AB92ACA2ADB2AA216B306C406D506B0
:100C800000F5089461087108810891086DA17EA1A2
:100C90008FA198A5A60EB71EC81ED91EA616B70608
:100CA000C806D90670F0A216B306C406D50648F4E5
:100CB00008946108710881089108A60EB71EC81E25
:100CC000D91ED601C501821B930BA40BB50B898FCE
:100CD0009A8FAB8FBC8FD10199278827640153016C
:100CE000A82AB92ACA2ADB2AA9AABAAACBAADCAAA4
:100CF000860175012FEF3FEF40E050E0E222F32242
:100D000004231523A601662777276D964CAF5DAFA8
:100D10006EAF7FAF6D97A9A0BAA0CBA0DCA06FEF9C
:100D20007FEF80E090E0A622B722C822D92289A1D5
:100D30009AA1ABA1BCA11D0144245524C801B7014F
:100D4000A60195010E940B2C69966CAF7DAF8EAF0A
:100D50009FAF6997C801B701A20191010E940B2CB6
:100D60003B014C016D966CAD7DAD8EAD9FAD6D9729
:100D7000A60195010E940B2C7B018C016D966CAD38
:100D80007DAD8EAD9FAD6D97A20191010E940B2CA0
:100D90005B016C01A8019701260D371D481D591DE7
:100DA00069966CAC7DAC8EAC9FAC6997C401AA27E8
:100DB000BB27280F391F4A1F5B1F2E153F05400711
:100DC000510748F4E12CF12C61E0062F112DAE0CF7
:100DD000BF1CC01ED11ECA01AA27BB27BC01CD0162
:100DE0006A0D7B1D8C1D9D1D698C7A8C8B8C9C8C57
:100DF000661677068806990640F166157705880518
:100E0000990509F043C0D9019927882769962CAD27
:100E10003DAD4EAD5FAD699740705070820F931F2E
:100E2000A41FB51F2DA53EA54FA558A96E960FACC2
:100E30006E9704C0220F331F441F551F0A94D2F728
:100E4000281739074A075B0708F509A91AA92BA92A
:100E50003CA9015010402040304009AB1AAB2BABED
:100E60003CAB14C066247724430121E030E040E02D
:100E700050E029AB3AAB4BAB5CAB0BC0662477249C
:100E8000430119AA1AAA1BAA1CAA03C06624772424
:100E90004301FE01719688E0DF011D928A95E9F712
:100EA000A9A8BAA8CBA8DCA8A98ABA8ACB8ADC8A66
:100EB0006D8A7E8A8F8A988E29A93A894B895C89A6
:100EC000662D7E898F89988DC25ADF4FE2E10C949E
:100ED000682CA0E0B0E0EFE6F7E00C944C2CDC01CD
:100EE0002B01FA019C91923008F439C1EB01888101
:100EF000823008F433C1943069F4843009F02FC192
:100F000011969C9111978981981709F428C1A5E73A
:100F1000B0E025C1843009F421C18230A9F49230B7
:100F200009F01DC19A01AD0188E0EA010990AE0106
:100F3000E90109929E018150C1F7E2018981119670
:100F40009C918923818308C1923009F407C11296CC
:100F50002D903C901397EB018A819B811496AD9064
:100F6000BD90CD90DC901797EC80FD800E811F81A5
:100F70009101281B390BB90137FF04C06627772779
:100F8000621B730B603271050CF061C01216130600
:100F90006CF537014801062E04C096948794779427
:100FA00067940A94D2F721E030E040E050E004C0BA
:100FB000220F331F441F551F6A95D2F7215030402E
:100FC000404050402E213F2140235123211531051F
:100FD0004105510521F021E030E040E050E0790189
:100FE0008A01E628F728082919293CC0232BD1F1CA
:100FF000260E371E35014601062E04C096948794AE
:10100000779467940A94D2F721E030E040E050E012
:1010100004C0220F331F441F551F6A95D2F7215079
:101020003040404050402A213B214C215D21211578
:1010300031054105510521F021E030E040E050E06C
:1010400059016A01A628B728C828D9280BC08215DB
:1010500093052CF01C01AA24BB24650103C0EE24D7
:10106000FF24870111969C91D20111968C919817BB
:1010700009F445C0992339F0A80197012A193B09C1
:101080004C095D0906C0A60195012E193F09400BC8
:10109000510B57FD08C0118233822282248335838D
:1010A000468357831DC081E0818333822282882753
:1010B0009927DC01821B930BA40BB50B84839583CA
:1010C000A683B7830DC0220F331F441F551F2483EF
:1010D00035834683578382819381019793838283EB
:1010E0002481358146815781DA01C9010197A1091F
:1010F000B1098F5F9F4FAF4FBF4328F30BC0918360
:1011000033822282EA0CFB1C0C1D1D1DE482F58239
:101110000683178383E0808324813581468157814C
:1011200057FF1AC0C901AA2797FDA095BA2F817051
:101130009070A070B0705695479537952795822B83
:10114000932BA42BB52B84839583A683B7838281AD
:101150009381019693838283DF0101C0D201CD0187
:10116000CDB7DEB7E2E10C94682CA0E2B0E0EBEB87
:10117000F8E00C94582C69837A838B839C832D83AD
:101180003E834F835887E9E0EE2EF12CEC0EFD1ED6
:10119000CE010196B7010E94C60B8E010F5E1F4F54
:1011A000CE010596B8010E94C60B8A8991E0892775
:1011B0008A8BC701B801AE01475E5F4F0E94690785
:1011C0000E94F10AA096E6E00C94742CA0E2B0E034
:1011D000ECEEF8E00C94582C69837A838B839C8323
:1011E0002D833E834F835887F9E0EF2EF12CEC0ED0
:1011F000FD1ECE010196B7010E94C60B8E010F5E47
:101200001F4FCE010596B8010E94C60BC701B80159
:10121000AE01475E5F4F0E9469070E94F10AA096E7
:10122000E6E00C94742CA0E2B0E0E9E1F9E00C9463
:101230004C2C69837A838B839C832D833E834F83DD
:101240005887CE010196BE01675F7F4F0E94C60B93
:10125000CE010596BE016F5E7F4F0E94C60B998539
:10126000923088F089898230C8F0943019F4823045
:1012700051F404C0843029F4923081F485E790E081
:10128000C6C0923049F420E09A858A89981321E0FB
:101290002A87CE010996BBC0823049F420E09A85A6
:1012A0008A89981321E02A8BCE014196B0C02D8403
:1012B0003E844F8458886D887E888F88988CEE2471
:1012C000FF248701AA24BB24650140E050E060E0D0
:1012D00070E0E0E0F0E0C10181709070892BE9F0EE
:1012E000E60CF71C081D191D9A01AB012A0D3B1DC8
:1012F0004C1D5D1D80E090E0A0E0B0E0E614F70436
:101300000805190520F481E090E0A0E0B0E0BA0102
:10131000A901480F591F6A1F7B1FAA0CBB1CCC1CBC
:10132000DD1C97FE08C081E090E0A0E0B0E0A82AB4
:10133000B92ACA2ADB2A3196E032F10549F0660C57
:10134000771C881C991C5694479437942794C3CFD4
:10135000FA85EA892B893C898B859C85280F391F62
:101360002E5F3F4F17C0CA0181709070892B61F0CA
:1013700016950795F794E79480E090E0A0E0B0E838
:10138000E82AF92A0A2B1B2B7695679557954795DE
:101390002F5F3F4F77FDE7CF0CC0440F551F661FEF
:1013A000771F17FD4160EE0CFF1C001F111F21501D
:1013B0003040403090E0590790E0690790E47907A9
:1013C00060F32B8F3C8FDB01CA018F779070A07088
:1013D000B07080349105A105B10561F447FD0AC0E4
:1013E000E114F1040105110529F0405C5F4F6F4FD6
:1013F0007F4F40781A8EFE1711F081E08A8F4D8F53
:101400005E8F6F8F78A383E0898FCE0149960E940B
:10141000F10AA096E2E10C94682CA8E1B0E0E3E1C7
:10142000FAE00C94582C69837A838B839C832D83F8
:101430003E834F83588789E0E82EF12CEC0EFD1E89
:10144000CE010196B7010E94C60B8E010F5E1F4FA1
:10145000CE010596B8010E94C60B8985823040F006
:101460008989823028F0C701B8010E943E0C01C072
:101470008FEF6896E6E00C94742CA8E1B0E0E3E40A
:10148000FAE00C94582C69837A838B839C832D8398
:101490003E834F83588789E0E82EF12CEC0EFD1E29
:1014A000CE010196B7010E94C60B8E010F5E1F4F41
:1014B000CE010596B8010E94C60B8985823040F0A6
:1014C0008989823028F0C701B8010E943E0C01C012
:1014D0008FEF6896E6E00C94742CA8E1B0E0E3E7A7
:1014E000FAE00C94582C69837A838B839C832D8338
:1014F0003E834F83588789E0E82EF12CEC0EFD1EC9
:10150000CE010196B7010E94C60B8E010F5E1F4FE0
:10151000CE010596B8010E94C60B8985823040F045
:101520008989823028F0C701B8010E943E0C01C0B1
:1015300081E06896E6E00C94742CACE0B0E0E3EA5D
:10154000FAE00C945C2C69837A838B839C83CE01B4
:101550000196BE016B5F7F4F0E94C60B8D8182306A
:1015600061F1823050F1843021F48E81882351F171
:101570002EC02F81388537FD20C06E812F31310577
:101580001CF06623F9F023C08EE190E0821B930BE0
:1015900029853A854B855C8504C0569547953795D6
:1015A00027958A95D2F76623B1F0509540953095EE
:1015B00021953F4F4F4F5F4F0EC020E030E040E09D
:1015C00050E009C02FEF3FEF4FEF5FE704C020E08E
:1015D00030E040E050E8B901CA012C96E2E00C94FA
:1015E000782CDF92EF92FF920F931F93FC01E4801F
:1015F000F58006811781D1808081823048F480E0B7
:1016000090E0A0E1B0E0E82AF92A0A2B1B2BA5C044
:10161000843009F49FC0823021F4EE24FF24870136
:1016200005C0E114F1040105110519F4E0E0F0E052
:1016300096C0628173819FEF623879070CF05BC0BE
:1016400022E83FEF261B370B2A3131052CF020E032
:1016500030E040E050E02AC0B801A701022E04C0EB
:1016600076956795579547950A94D2F781E090E073
:10167000A0E0B0E004C0880F991FAA1FBB1F2A95E5
:10168000D2F70197A109B1098E219F21A023B1238F
:101690000097A105B10521F081E090E0A0E0B0E065
:1016A0009A01AB01282B392B4A2B5B2BDA01C9019C
:1016B0008F779070A070B07080349105A105B1054E
:1016C00039F427FF09C0205C3F4F4F4F5F4F04C0E4
:1016D000215C3F4F4F4F5F4FE0E0F0E02030A0E053
:1016E0003A07A0E04A07A0E45A0710F0E1E0F0E072
:1016F00079018A0127C06038710564F5FB01E15862
:10170000FF4FD801C7018F779070A070B070803400
:101710009105A105B10539F4E7FE0DC080E490E024
:10172000A0E0B0E004C08FE390E0A0E0B0E0E80EFD
:10173000F91E0A1F1B1F17FF05C016950795F79482
:10174000E794319687E016950795F794E7948A9584
:10175000D1F705C0EE24FF248701EFEFF0E06E2FF4
:10176000679566276795902F9F77D794DD24D79448
:101770008E2F8695492F462B582F5D29B701CA0118
:101780001F910F91FF90EF90DF900895FC01DB0116
:10179000408151812281622F6F7770E0221F2227C2
:1017A000221F9381892F880F822B282F30E0991FC9
:1017B0009927991F11969C93119721153105A9F529
:1017C000411551056105710511F482E037C082E8C9
:1017D0009FEF13969C938E9312979A01AB0167E04B
:1017E000220F331F441F551F6A95D1F783E08C9356
:1017F0000DC0220F331F441F551F12968D919C91CF
:101800001397019713969C938E931297203080E044
:10181000380780E0480780E4580758F314962D9362
:101820003D934D935C93179708952F3F310579F4BD
:10183000411551056105710519F484E08C930895F3
:1018400064FF03C081E08C9312C01C9210C02F571C
:10185000304013963C932E93129783E08C9387E04D
:10186000440F551F661F771F8A95D1F77064149631
:101870004D935D936D937C93179708951F93DC01AF
:10188000FB019C91923008F447C08081823008F4BB
:1018900043C0943051F411961C91843099F58181A4
:1018A000682F70E0611B71093FC0843021F09230D5
:1018B00031F48230B9F18181882389F12DC01196EC
:1018C0001C9111978230F1F081811817D9F412968A
:1018D0002D913C911397828193818217930794F005
:1018E00028173907BCF014968D919D910D90BC91ED
:1018F000A02D2481358146815781281739074A0751
:101900005B0718F4112341F00AC082179307A4075C
:10191000B50740F4112319F061E070E005C06FEFE6
:101920007FEF02C060E070E0CB011F910895DF936C
:10193000CF93CDB7DEB7A6E2B0E0E6E2F0E080817B
:1019400080688C93A6E2B0E0E6E2F0E080818260FD
:101950008C93A6E2B0E0E6E2F0E0808184608C93B4
:10196000A7E2B0E0E7E2F0E0808180648C93A7E238
:10197000B0E0E7E2F0E0808181608C93CF91DF916D
:101980000895DF93CF9300D0CDB7DEB7A6E2B0E0E5
:10199000E6E2F0E0808180648C93E6E2F0E0808112
:1019A000882F90E080719070959587959595879593
:1019B0009595879595958795009779F3A6E2B0E080
:1019C000E6E2F0E0808180618C93E4E2F0E08081E7
:1019D000882F90E09A838983E5E2F0E08081882F68
:1019E00090E0982F88279C0189819A81822B932BE4
:1019F0009A83898389819A810F900F90CF91DF918B
:101A00000895DF93CF93CDB7DEB72F970FB6F89435
:101A1000DEBF0FBECDBF8C836D831B828C81803275
:101A200018F081E08B839EC18D81823018F082E0B6
:101A30008B8398C18C8187708A838C8186958695EB
:101A4000869589838981282F30E03F872E874E85B0
:101A50005F854130510509F473C08E859F858230C2
:101A6000910534F42E853F852115310571F078C13B
:101A70004E855F854230510509F4BDC08E859F8536
:101A80008330910509F412C16BC1EAE3F0E0808173
:101A9000482F50E08A81282F30E081E090E002C09A
:101AA000880F991F2A95E2F79A01282339238A8102
:101AB000882F90E0A90102C0559547958A95E2F7D5
:101AC000CA0181309105C9F58D81282F30E03D870D
:101AD0002C874C855D8541155105D1F08C859D8500
:101AE0008130910509F03EC1ABE3B0E0EBE3F0E0FB
:101AF0008081482F8A81282F30E081E090E0022EFB
:101B000002C0880F991F0A94E2F7842B8C932AC194
:101B1000ABE3B0E0EBE3F0E08081482F8A81282F2F
:101B200030E081E090E0022E02C0880F991F0A94F5
:101B3000E2F7809584238C9315C184E08B8312C1D6
:101B4000E7E3F0E08081482F50E08A81282F30E0E1
:101B500081E090E002C0880F991F2A95E2F79A0170
:101B6000282339238A81882F90E0A90102C0559546
:101B700047958A95E2F7CA0181309105C9F58D81B3
:101B8000282F30E03B872A874A855B854115510520
:101B9000D1F08A859B858130910509F0E3C0A8E3E7
:101BA000B0E0E8E3F0E08081482F8A81282F30E020
:101BB00081E090E0022E02C0880F991F0A94E2F79C
:101BC000842B8C93CFC0A8E3B0E0E8E3F0E0808101
:101BD000482F8A81282F30E081E090E0022E02C059
:101BE000880F991F0A94E2F7809584238C93BAC0DA
:101BF00084E08B83B7C0E4E3F0E08081482F50E0BD
:101C00008A81282F30E081E090E002C0880F991F80
:101C10002A95E2F79A01282339238A81882F90E0B8
:101C2000A90102C0559547958A95E2F7CA0181300E
:101C30009105C9F58D81282F30E03987288748859F
:101C4000598541155105D1F08885998581309105D7
:101C500009F088C0A5E3B0E0E5E3F0E08081482F1B
:101C60008A81282F30E081E090E0022E02C0880FA8
:101C7000991F0A94E2F7842B8C9374C0A5E3B0E01B
:101C8000E5E3F0E08081482F8A81282F30E081E071
:101C900090E0022E02C0880F991F0A94E2F7809507
:101CA00084238C935FC084E08B835CC0E1E3F0E02D
:101CB0008081482F50E08A81282F30E081E090E039
:101CC00002C0880F991F2A95E2F79A012823392329
:101CD0008A81882F90E0A90102C0559547958A9581
:101CE000E2F7CA0181309105C1F58D81282F30E0DE
:101CF0003F832E834E815F8141155105C9F08E814E
:101D00009F818130910571F5A2E3B0E0E2E3F0E05C
:101D10008081482F8A81282F30E081E090E0022ED8
:101D200002C0880F991F0A94E2F7842B8C931AC083
:101D3000A2E3B0E0E2E3F0E08081482F8A81282F1F
:101D400030E081E090E0022E02C0880F991F0A94D3
:101D5000E2F7809584238C9305C084E08B8302C0D6
:101D600081E08B838B812F960FB6F894DEBF0FBE78
:101D7000CDBFCF91DF910895DF93CF93CDB7DEB77D
:101D800028970FB6F894DEBF0FBECDBF8C837E833D
:101D90006D831B828C81803218F081E08B8338C187
:101DA0008D819E81009719F485E08B8331C18C81F0
:101DB00087708A838C8186958695869589838981AB
:101DC000282F30E038872F834F81588541305105C7
:101DD00009F459C08F8198858230910534F42F81A0
:101DE00038852115310571F011C14F815885423078
:101DF000510509F489C08F8198858330910509F4D4
:101E0000C4C004C1EAE3F0E08081482F50E08A8139
:101E1000282F30E081E090E002C0880F991F2A95BA
:101E2000E2F79A01282339238A81882F90E0A901BB
:101E300002C0559547958A95E2F7CA01009701F5CA
:101E4000E9E3F0E08081482F50E08A81282F30E0DC
:101E500081E090E002C0880F991F2A95E2F79A016D
:101E6000282339238A81882F90E0A90102C0559543
:101E700047958A95E2F7CA01ED81FE818083C8C04B
:101E800084E08B83C5C0E7E3F0E08081482F50E019
:101E90008A81282F30E081E090E002C0880F991FEE
:101EA0002A95E2F79A01282339238A81882F90E026
:101EB000A90102C0559547958A95E2F7CA01009796
:101EC00001F5E6E3F0E08081482F50E08A81282F79
:101ED00030E081E090E002C0880F991F2A95E2F778
:101EE0009A01282339238A81882F90E0A90102C012
:101EF000559547958A95E2F7CA01ED81FE81808369
:101F000087C084E08B8384C0E4E3F0E08081482FC5
:101F100050E08A81282F30E081E090E002C0880FF5
:101F2000991F2A95E2F79A01282339238A81882F5D
:101F300090E0A90102C0559547958A95E2F7CA013C
:101F4000009701F5E3E3F0E08081482F50E08A81BB
:101F5000282F30E081E090E002C0880F991F2A9579
:101F6000E2F79A01282339238A81882F90E0A9017A
:101F700002C0559547958A95E2F7CA01ED81FE8129
:101F8000808346C084E08B8343C0E1E3F0E080813E
:101F9000482F50E08A81282F30E081E090E002C095
:101FA000880F991F2A95E2F79A01282339238A81FD
:101FB000882F90E0A90102C0559547958A95E2F7D0
:101FC000CA01009701F5E0E3F0E08081482F50E07E
:101FD0008A81282F30E081E090E002C0880F991FAD
:101FE0002A95E2F79A01282339238A81882F90E0E5
:101FF000A90102C0559547958A95E2F7CA01ED817E
:10200000FE81808305C084E08B8302C081E08B83E6
:102010008B8128960FB6F894DEBF0FBECDBFCF914F
:10202000DF910895DF93CF9300D000D000D0CDB7DB
:10203000DEB78C831B828C81803218F081E08B8329
:1020400079C08C8187708A838C81869586958695E8
:1020500089838981282F30E03E832D838D819E8165
:102060008130910549F12D813E81223031052CF4DA
:102070008D819E81009761F05BC02D813E81223071
:10208000310571F18D819E8183309105E9F150C058
:10209000ABE3B0E0EBE3F0E08081482F8A81282FAA
:1020A00030E081E090E0022E02C0880F991F0A9470
:1020B000E2F784278C933EC0A8E3B0E0E8E3F0E0C9
:1020C0008081482F8A81282F30E081E090E0022E25
:1020D00002C0880F991F0A94E2F784278C932AC0C4
:1020E000A5E3B0E0E5E3F0E08081482F8A81282F66
:1020F00030E081E090E0022E02C0880F991F0A9420
:10210000E2F784278C9316C0A2E3B0E0E2E3F0E0AC
:102110008081482F8A81282F30E081E090E0022ED4
:1021200002C0880F991F0A94E2F784278C9302C09B
:1021300081E08B838B8126960FB6F894DEBF0FBEAD
:10214000CDBFCF91DF910895DF93CF9300D000D022
:1021500000D0CDB7DEB78B836C831A828B8184303D
:1021600018F086E08A8357C08B8189838981282F64
:1021700030E03E832D838D819E818130910511F168
:102180002D813E81223031052CF48D819E81009776
:1021900061F03FC02D813E812230310501F18D81FA
:1021A0009E818330910541F134C0EAE3F0E0808103
:1021B0008F3F29F4EBE3F0E08C8180832CC084E036
:1021C0008A8329C0E7E3F0E080818F3F29F4E8E3C8
:1021D000F0E08C8180831FC084E08A831CC0E4E32C
:1021E000F0E080818F3F29F4E5E3F0E08C8180838B
:1021F00012C084E08A830FC0E1E3F0E080818F3F6A
:1022000029F4E2E3F0E08C81808305C084E08A83D6
:1022100002C086E08A838A8126960FB6F894DEBFD4
:102220000FBECDBFCF91DF910895DF93CF93CDB790
:10223000DEB727970FB6F894DEBF0FBECDBF8B83F6
:102240007D836C831A828B81843018F081E08A83CD
:1022500066C08C819D81009719F485E08A835FC0F8
:102260008B8189838981282F30E03F832E838E8163
:102270009F818130910521F12E813F8122303105EE
:102280002CF48E819F81009761F047C02E813F81A1
:102290002230310521F18E819F818330910571F1CA
:1022A0003CC0EAE3F0E08081882339F4E9E3F0E020
:1022B0008081EC81FD81808332C084E08A832FC0DD
:1022C000E7E3F0E08081882339F4E6E3F0E0808101
:1022D000EC81FD81808323C084E08A8320C0E4E315
:1022E000F0E08081882339F4E3E3F0E08081EC8141
:1022F000FD81808314C084E08A8311C0E1E3F0E0B3
:102300008081882339F4E0E3F0E08081EC81FD8175
:10231000808305C084E08A8302C086E08A838A8144
:1023200027960FB6F894DEBF0FBECDBFCF91DF91D9
:102330000895DF93CF93CDB7DEB7A3E5B0E0E3E533
:10234000F0E0808181608C93A3E5B0E0E3E5F0E00C
:10235000808184608C93A9E5B0E0E9E5F0E08081BC
:1023600081608C93AFE5B0E0EFE5F0E080818068BC
:102370008C93CF91DF910895DF93CF93CDB7DEB7E4
:102380008AE160E00E9429238BE160E00E9429231A
:102390008AE060E00E942923AFE5B0E0EFE5F0E0DD
:1023A000808180688C93CF91DF9108951F920F9266
:1023B0000FB60F9211242F933F934F935F936F9318
:1023C0007F938F939F93AF93BF93EF93FF93DF938D
:1023D000CF93CDB7DEB72E97DEBFCDBF80E00E9492
:1023E000D11281E00E94921282E00E949212AFE527
:1023F000B0E0EFE5F0E0808180688C9380E00E949F
:10240000052380E00E94D11281E00E94D11282E077
:102410000E94D11280E090E0AAEFB3E48B879C8702
:10242000AD87BE876B857C858D859E8520E030E0FD
:102430004AEF54E40E941309DC01CB018F83988793
:10244000A987BA876F81788589859A8520E030E0F1
:1024500040E85FE30E946D0A88232CF481E090E05D
:102460009E838D833FC06F81788589859A8520E022
:102470003FEF4FE757E40E940D0A18164CF56B85A5
:102480007C858D859E8520E030E040E251E40E940D
:102490001309DC01CB01BC01CD010E94C800DC01A5
:1024A000CB019E838D830FC088EC90E09C838B834F
:1024B0008B819C810197F1F79C838B838D819E8119
:1024C00001979E838D838D819E81009769F714C04B
:1024D0006F81788589859A850E94C800DC01CB01CF
:1024E0009E838D838D819E819A83898389819A8140
:1024F0000197F1F79A8389832E96DEBFCDBFCF91E6
:10250000DF91FF91EF91BF91AF919F918F917F915B
:102510006F915F914F913F912F910F900FBE0F9050
:102520001F901895DF93CF9300D000D0CDB7DEB7C2
:102530008A8319820E94BC118A81282F30E03C8353
:102540002B838B819C818130910589F02B813C818B
:1025500022303105A1F08B819C810097C1F4ABE55D
:10256000B0E0EBE5F0E080818F7B8C9312C0ABE5AF
:10257000B0E0EBE5F0E080818F778C930AC0ABE5AB
:10258000B0E0EBE5F0E080818F7D8C9302C081E0CC
:10259000898389810F900F900F900F90CF91DF91D9
:1025A0000895DF93CF9300D000D0CDB7DEB78A83F4
:1025B00019820E94BC118A81282F30E03C832B8332
:1025C0008B819C818130910589F02B813C81223067
:1025D0003105A1F08B819C810097C1F4ABE5B0E09F
:1025E000EBE5F0E0808180648C9312C0ABE5B0E055
:1025F000EBE5F0E0808180688C930AC0ABE5B0E049
:10260000EBE5F0E0808180628C9302C081E08983F9
:1026100089810F900F900F900F90CF91DF910895C7
:10262000DF93CF93CDB7DEB72B970FB6F894DEBF0D
:102630000FBECDBF8A836B8319820E94BC118A8131
:10264000282F30E03B872A878A859B85813091053A
:1026500009F469C02A853B852230310509F4C1C0DF
:102660008A859B85009709F0DFC08B81282F30E099
:1026700039872887888599858130910521F12885BA
:102680003985223031052CF488859985009761F0D1
:1026900047C0288539852230310521F18885998503
:1026A0008330910571F13CC0A5E5B0E0E5E5F0E0CF
:1026B00080818E7F8C93A5E5B0E0E5E5F0E0808138
:1026C0008D7F8C93B3C0A5E5B0E0E5E5F0E08081B7
:1026D00081608C93A5E5B0E0E5E5F0E080818D7F39
:1026E0008C93A4C0A5E5B0E0E5E5F0E080818E7FA5
:1026F0008C93A5E5B0E0E5E5F0E0808182608C9305
:1027000095C0A5E5B0E0E5E5F0E0808181608C93BF
:10271000A5E5B0E0E5E5F0E0808182608C9386C0BD
:1027200082E0898383C08B81282F30E03F832E8312
:102730008E819F818130910521F12E813F81223050
:1027400031052CF48E819F81009761F047C02E8166
:102750003F812230310521F18E819F8183309105A7
:1027600071F13CC0A5E5B0E0E5E5F0E080818B7F4C
:102770008C93A5E5B0E0E5E5F0E08081877F8C9360
:1027800055C0A5E5B0E0E5E5F0E0808184608C937C
:10279000A5E5B0E0E5E5F0E08081877F8C9346C059
:1027A000A5E5B0E0E5E5F0E080818B7F8C93A5E5C1
:1027B000B0E0E5E5F0E0808188608C9337C0A5E566
:1027C000B0E0E5E5F0E0808184608C93A5E5B0E0C1
:1027D000E5E5F0E0808188608C9328C082E0898301
:1027E00025C08B81282F30E03D832C838C819D81F7
:1027F0008230910531F02C813D812330310549F043
:1028000010C0A4E5B0E0E4E5F0E080818F7B8C931C
:102810000DC0A4E5B0E0E4E5F0E0808180648C9335
:1028200005C082E0898302C081E0898389812B967B
:102830000FB6F894DEBF0FBECDBFCF91DF910895E4
:10284000DF93CF9300D000D000D0CDB7DEB78E831A
:1028500019821A8281E08B8382E08C8383E08D83EE
:1028600019820FC08981282F30E0CE010296FC0129
:10287000E20FF31F808161E00E94010D89818F5F6B
:1028800089838981843070F38E81282F30E0CE01D6
:102890000296FC01E20FF31F808160E00E94010DAF
:1028A00026960FB6F894DEBF0FBECDBFCF91DF9155
:1028B0000895DF93CF93CDB7DEB72A970FB6F8947C
:1028C000DEBF0FBECDBF9A8789871B8281E08C83D4
:1028D0001A82198280E061E00E94292381E061E090
:1028E0000E94292382E061E00E94292383E061E0C5
:1028F0000E94292384E061E00E94572485E061E082
:102900000E94572486E061E00E94572487E061E03E
:102910000E94572484E08D8385E08E8386E08F8338
:1029200087E0888789859A85009719F481E08B83F1
:102930003EC01A8239C08A810E942014198212C0B6
:102940008981282F30E0CE010596FC01E20FF31FAC
:1029500080819E012C5F3F4FB9010E94BC0E89818E
:102960008F5F89838981843018F48C81882341F7B3
:102970008C818823B1F48A81882F90E09C01220FFA
:10298000331F220F331F8981882F90E0820F931FFE
:102990000197FC01E358FE4F8081E985FA85808329
:1029A00006C08A818F5F8A838A81843020F28B817E
:1029B0002A960FB6F894DEBF0FBECDBFCF91DF9140
:1029C00008950F931F93DF93CF93CDB7DEB7C45510
:1029D000D0400FB6F894DEBF0FBECDBF88E30E9493
:1029E000BB19FE01EF5AFF4F80E090E0A0E8BFE383
:1029F00080839183A283B3838E01035B1F4FFE010B
:102A0000EF5AFF4F608171818281938120E030E035
:102A10004AEF54E40E941309DC01CB01F8018083E2
:102A20009183A283B383FE01E35BFF4F60817181D9
:102A30008281938120E030E040E85FE30E946D0AEC
:102A4000882344F4FE01E55BFF4F81E090E0918331
:102A5000808364C0FE01E35BFF4F608171818281EE
:102A6000938120E03FEF4FE757E40E940D0A1816CC
:102A70000CF043C0FE01EF5AFF4F608171818281EB
:102A8000938120E030E040E251E40E941309DC0130
:102A9000CB018E01055B1F4FBC01CD010E94C80018
:102AA000DC01CB01F801918380831FC0FE01E75B4D
:102AB000FF4F88EC90E091838083FE01E75BFF4F3E
:102AC000808191810197F1F7FE01E75BFF4F9183D0
:102AD0008083DE01A55BBF4FFE01E55BFF4F808178
:102AE0009181019711969C938E93FE01E55BFF4FB8
:102AF000808191810097D1F627C08E01055B1F4F21
:102B0000FE01E35BFF4F60817181828193810E94AE
:102B1000C800DC01CB01F80191838083DE01A95B51
:102B2000BF4FFE01E55BFF4F808191818D939C93A8
:102B3000FE01E95BFF4F808191810197F1F7FE0172
:102B4000E95BFF4F9183808381E00E94BB19FE0106
:102B5000ED5BFF4F80E090E0A0E8BFE380839183CE
:102B6000A283B3838E01015C1F4FFE01ED5BFF4F1B
:102B7000608171818281938120E030E04AEF54E4EA
:102B80000E941309DC01CB01F80180839183A283A9
:102B9000B383FE01FF96608171818281938120E081
:102BA00030E040E85FE30E946D0A88232CF481E066
:102BB00090E09EAF8DAF46C0FE01FF9660817181AF
:102BC0008281938120E03FEF4FE757E40E940D0A96
:102BD000181664F5FE01ED5BFF4F60817181828103
:102BE000938120E030E040E251E40E941309DC01CF
:102BF000CB01BC01CD010E94C800DC01CB019EAF1E
:102C00008DAF0FC088EC90E09CAF8BAF8BAD9CADCF
:102C10000197F1F79CAF8BAF8DAD9EAD01979EAF45
:102C20008DAF8DAD9EAD009769F716C0FE01FF9682
:102C300060817181828193810E94C800DC01CB0197
:102C40009EAF8DAF8DAD9EAD9AAF89AF89AD9AAD78
:102C50000197F1F79AAF89AF82E00E94BB1980E03B
:102C600090E0A0E8BFE38DAB9EABAFABB8AF6DA972
:102C70007EA98FA998AD20E030E04AEF54E40E948D
:102C80001309DC01CB0189AB9AABABABBCAB69A937
:102C90007AA98BA99CA920E030E040E85FE30E947C
:102CA0006D0A88232CF481E090E098AB8FA73FC099
:102CB00069A97AA98BA99CA920E03FEF4FE757E4C7
:102CC0000E940D0A18164CF56DA97EA98FA998AD22
:102CD00020E030E040E251E40E941309DC01CB0126
:102CE000BC01CD010E94C800DC01CB0198AB8FA7CD
:102CF0000FC088EC90E09EA78DA78DA59EA501979B
:102D0000F1F79EA78DA78FA598A9019798AB8FA7DC
:102D10008FA598A9009769F714C069A97AA98BA90A
:102D20009CA90E94C800DC01CB0198AB8FA78FA59E
:102D300098A99CA78BA78BA59CA50197F1F79CA7A9
:102D40008BA786E00E94BB1980E090E0A0E8BFE37B
:102D50008FA398A7A9A7BAA76FA178A589A59AA5B7
:102D600020E030E04AEF54E40E941309DC01CB017B
:102D70008BA39CA3ADA3BEA36BA17CA18DA19EA19F
:102D800020E030E040E85FE30E946D0A88232CF4E5
:102D900081E090E09AA389A33FC06BA17CA18DA1A3
:102DA0009EA120E03FEF4FE757E40E940D0A18165E
:102DB0004CF56FA178A589A59AA520E030E040E206
:102DC00051E40E941309DC01CB01BC01CD010E943A
:102DD000C800DC01CB019AA389A30FC088EC90E066
:102DE00098A38F8F8F8D98A10197F1F798A38F8F5C
:102DF00089A19AA101979AA389A389A19AA1009771
:102E000069F714C06BA17CA18DA19EA10E94C8008E
:102E1000DC01CB019AA389A389A19AA19E8F8D8FF2
:102E20008D8D9E8D0197F1F79E8F8D8F80E80E948A
:102E3000BB1980E090E0A0E8BFE3898F9A8FAB8F49
:102E4000BC8F698D7A8D8B8D9C8D20E030E04AEFB0
:102E500054E40E941309DC01CB018D8B9E8BAF8B58
:102E6000B88F6D897E898F89988D20E030E040E8A9
:102E70005FE30E946D0A88232CF481E090E09C8B34
:102E80008B8B3FC06D897E898F89988D20E03FEFC5
:102E90004FE757E40E940D0A18164CF5698D7A8D9C
:102EA0008B8D9C8D20E030E040E251E40E941309BC
:102EB000DC01CB01BC01CD010E94C800DC01CB01CB
:102EC0009C8B8B8B0FC088EC90E09A8B898B8989C7
:102ED0009A890197F1F79A8B898B8B899C89019745
:102EE0009C8B8B8B8B899C89009769F714C06D89AB
:102EF0007E898F89988D0E94C800DC01CB019C8B54
:102F00008B8B8B899C89988B8F878F85988901976C
:102F1000F1F7988B8F878CE00E94BB1980E090E0DE
:102F2000A0E8BFE38B879C87AD87BE876B857C85D8
:102F30008D859E8520E030E04AEF54E40E9413091D
:102F4000DC01CB018F839887A987BA876F81788549
:102F500089859A8520E030E040E85FE30E946D0AB1
:102F600088232CF481E090E09E838D833FC06F81A5
:102F7000788589859A8520E03FEF4FE757E40E94E6
:102F80000D0A18164CF56B857C858D859E8520E095
:102F900030E040E251E40E941309DC01CB01BC01A6
:102FA000CD010E94C800DC01CB019E838D830FC040
:102FB00088EC90E09C838B838B819C810197F1F757
:102FC0009C838B838D819E8101979E838D838D81D0
:102FD0009E81009769F714C06F81788589859A85ED
:102FE0000E94C800DC01CB019E838D838D819E8170
:102FF0009A83898389819A810197F1F79A838983DA
:10300000CC5ADF4F0FB6F894DEBF0FBECDBFCF91C5
:10301000DF911F910F910895DF93CF93CDB7DEB766
:10302000AB970FB6F894DEBF0FBECDBF8BA78DE177
:1030300061E00E9429238EE161E00E94292380E063
:1030400090E0A0E4B0E48FA398A7A9A7BAA76FA1C6
:1030500078A589A59AA520E030E04AEF54E40E94C3
:103060001309DC01CB018BA39CA3ADA3BEA36BA171
:103070007CA18DA19EA120E030E040E85FE30E94AA
:103080006D0A88232CF481E090E09AA389A33FC0C5
:103090006BA17CA18DA19EA120E03FEF4FE757E4FB
:1030A0000E940D0A18164CF56FA178A589A59AA55E
:1030B00020E030E040E251E40E941309DC01CB0142
:1030C000BC01CD010E94C800DC01CB019AA389A3F9
:1030D0000FC088EC90E098A38F8F8F8D98A10197F7
:1030E000F1F798A38F8F89A19AA101979AA389A339
:1030F00089A19AA1009769F714C06BA17CA18DA149
:103100009EA10E94C800DC01CB019AA389A389A1DA
:103110009AA19E8F8D8F8D8D9E8D0197F1F79E8F39
:103120008D8FE5E3F0E08FEF80838DE161E00E9419
:10313000010D8EE161E00E94010D80E090E0A0EAC7
:10314000B0E4898F9A8FAB8FBC8F698D7A8D8B8D10
:103150009C8D20E030E04AEF54E40E941309DC012A
:10316000CB018D8B9E8BAF8BB88F6D897E898F89BC
:10317000988D20E030E040E85FE30E946D0A8823EC
:103180002CF481E090E09C8B8B8B3FC06D897E8915
:103190008F89988D20E03FEF4FE757E40E940D0A9A
:1031A00018164CF5698D7A8D8B8D9C8D20E030E062
:1031B00040E251E40E941309DC01CB01BC01CD01C6
:1031C0000E94C800DC01CB019C8B8B8B0FC088EC6C
:1031D00090E09A8B898B89899A890197F1F79A8B6C
:1031E000898B8B899C8901979C8B8B8B8B899C8984
:1031F000009769F714C06D897E898F89988D0E9428
:10320000C800DC01CB019C8B8B8B8B899C89988BB4
:103210008F878F8598890197F1F7988B8F87E5E3E2
:10322000F0E08BA580838EE160E00E94010D80E0DC
:1032300090E0A0E8BFE38B879C87AD87BE876B8556
:103240007C858D859E8520E030E04AEF54E40E9425
:103250001309DC01CB018F839887A987BA876F8117
:10326000788589859A8520E030E040E85FE30E9418
:103270006D0A88232CF481E090E09E838D833FC00B
:103280006F81788589859A8520E03FEF4FE757E485
:103290000E940D0A18164CF56B857C858D859E85E0
:1032A00020E030E040E251E40E941309DC01CB0150
:1032B000BC01CD010E94C800DC01CB019E838D833F
:1032C0000FC088EC90E09C838B838B819C8101975D
:1032D000F1F79C838B838D819E8101979E838D83E3
:1032E0008D819E81009769F714C06F8178858985EB
:1032F0009A850E94C800DC01CB019E838D838D815D
:103300009E819A83898389819A810197F1F79A83B3
:103310008983AB960FB6F894DEBF0FBECDBFCF91B9
:10332000DF910895DF93CF930F92CDB7DEB78983F6
:1033300089810E940C180F90CF91DF910895DF933F
:10334000CF9300D0CDB7DEB79A8389830AC0E981D5
:10335000FA8180810E940C1889819A8101969A8352
:103360008983E981FA818081882389F70F900F9002
:10337000CF91DF910895DF93CF93CDB7DEB7AB97B1
:103380000FB6F894DEBF0FBECDBF8BA78DE161E015
:103390000E9429238EE161E00E94292380E090E0D1
:1033A000A0E4B0E48FA398A7A9A7BAA76FA178A5B6
:1033B00089A59AA520E030E04AEF54E40E94130961
:1033C000DC01CB018BA39CA3ADA3BEA36BA17CA10D
:1033D0008DA19EA120E030E040E85FE30E946D0AED
:1033E00088232CF481E090E09AA389A33FC06BA1CD
:1033F0007CA18DA19EA120E03FEF4FE757E40E9402
:103400000D0A18164CF56FA178A589A59AA520E09C
:1034100030E040E251E40E941309DC01CB01BC0121
:10342000CD010E94C800DC01CB019AA389A30FC083
:1034300088EC90E098A38F8F8F8D98A10197F1F77A
:1034400098A38F8F89A19AA101979AA389A389A193
:103450009AA1009769F714C06BA17CA18DA19EA1D0
:103460000E94C800DC01CB019AA389A389A19AA17B
:103470009E8F8D8F8D8D9E8D0197F1F79E8F8D8FF5
:10348000E5E3F0E08FEF80838DE160E00E94010DC5
:103490008EE161E00E94010D80E090E0A0EAB0E4DE
:1034A000898F9A8FAB8FBC8F698D7A8D8B8D9C8D18
:1034B00020E030E04AEF54E40E941309DC01CB0124
:1034C0008D8B9E8BAF8BB88F6D897E898F89988D00
:1034D00020E030E040E85FE30E946D0A88232CF48E
:1034E00081E090E09C8B8B8B3FC06D897E898F89BA
:1034F000988D20E03FEF4FE757E40E940D0A181621
:103500004CF5698D7A8D8B8D9C8D20E030E040E20A
:1035100051E40E941309DC01CB01BC01CD010E94E2
:10352000C800DC01CB019C8B8B8B0FC088EC90E03A
:103530009A8B898B89899A890197F1F79A8B898B64
:103540008B899C8901979C8B8B8B8B899C8900979D
:1035500069F714C06D897E898F89988D0E94C80093
:10356000DC01CB019C8B8B8B8B899C89988B8F8703
:103570008F8598890197F1F7988B8F87E5E3F0E0C5
:103580008BA580838EE160E00E94010D80E090E0D9
:10359000A0E8BFE38B879C87AD87BE876B857C8562
:1035A0008D859E8520E030E04AEF54E40E941309A7
:1035B000DC01CB018F839887A987BA876F817885D3
:1035C00089859A8520E030E040E85FE30E946D0A3B
:1035D00088232CF481E090E09E838D833FC06F812F
:1035E000788589859A8520E03FEF4FE757E40E9470
:1035F0000D0A18164CF56B857C858D859E8520E01F
:1036000030E040E251E40E941309DC01CB01BC012F
:10361000CD010E94C800DC01CB019E838D830FC0C9
:1036200088EC90E09C838B838B819C810197F1F7E0
:103630009C838B838D819E8101979E838D838D8159
:103640009E81009769F714C06F81788589859A8576
:103650000E94C800DC01CB019E838D838D819E81F9
:103660009A83898389819A810197F1F79A83898363
:10367000AB960FB6F894DEBF0FBECDBFCF91DF91F2
:103680000895DF93CF9300D000D0CDB7DEB7898304
:103690006A838981282F30E03C832B838B819C8136
:1036A000009731F02B813C812130310531F009C088
:1036B0008A8181580E94BB1904C08A8181540E946A
:1036C000BB190F900F900F900F90CF91DF9108953D
:1036D000DF93CF93CDB7DEB72E970FB6F894DEBF4A
:1036E0000FBECDBF8EE00E94BB1980E090E0AAEF34
:1036F000B3E48B879C87AD87BE876B857C858D8582
:103700009E8520E030E04AEF54E40E941309DC017A
:10371000CB018F839887A987BA876F817885898540
:103720009A8520E030E040E85FE30E946D0A88233C
:103730002CF481E090E09E838D833FC06F8178857B
:1037400089859A8520E03FEF4FE757E40E940D0AF4
:1037500018164CF56B857C858D859E8520E030E0C4
:1037600040E251E40E941309DC01CB01BC01CD0110
:103770000E94C800DC01CB019E838D830FC088ECC2
:1037800090E09C838B838B819C810197F1F79C83D4
:103790008B838D819E8101979E838D838D819E81F8
:1037A000009769F714C06F81788589859A850E9492
:1037B000C800DC01CB019E838D838D819E819A831D
:1037C000898389819A810197F1F79A83898381E0BE
:1037D0000E94BB192E960FB6F894DEBF0FBECDBF68
:1037E000CF91DF9108950F931F93DF93CF93CDB7C0
:1037F000DEB7C455D0400FB6F894DEBF0FBECDBFC4
:1038000088E30E94CD20FE01EF5AFF4F80E090E058
:10381000A0E8BFE380839183A283B3838E01035B1F
:103820001F4FFE01EF5AFF4F6081718182819381AA
:1038300020E030E04AEF54E40E941309DC01CB01A0
:10384000F80180839183A283B383FE01E35BFF4F82
:10385000608171818281938120E030E040E85FE304
:103860000E946D0A882344F4FE01E55BFF4F81E06E
:1038700090E09183808364C0FE01E35BFF4F608131
:1038800071818281938120E03FEF4FE757E40E94EE
:103890000D0A18160CF043C0FE01EF5AFF4F60816D
:1038A00071818281938120E030E040E251E40E9406
:1038B0001309DC01CB018E01055B1F4FBC01CD015B
:1038C0000E94C800DC01CB01F801918380831FC0F6
:1038D000FE01E75BFF4F88EC90E091838083FE015F
:1038E000E75BFF4F808191810197F1F7FE01E75B74
:1038F000FF4F91838083DE01A55BBF4FFE01E55B37
:10390000FF4F80819181019711969C938E93FE01C8
:10391000E55BFF4F808191810097D1F627C08E0132
:10392000055B1F4FFE01E35BFF4F60817181828168
:1039300093810E94C800DC01CB01F8019183808350
:10394000DE01A95BBF4FFE01E55BFF4F80819181E6
:103950008D939C93FE01E95BFF4F808191810197DC
:10396000F1F7FE01E95BFF4F9183808381E00E94C4
:10397000CD20FE01ED5BFF4F80E090E0A0E8BFE3CB
:1039800080839183A283B3838E01015C1F4FFE016C
:10399000ED5BFF4F608171818281938120E030E097
:1039A0004AEF54E40E941309DC01CB01F801808343
:1039B0009183A283B383FE01FF966081718182812E
:1039C000938120E030E040E85FE30E946D0A8823A5
:1039D0002CF481E090E09EAF8DAF46C0FE01FF96D3
:1039E000608171818281938120E03FEF4FE757E44E
:1039F0000E940D0A181664F5FE01ED5BFF4F608111
:103A000071818281938120E030E040E251E40E94A4
:103A10001309DC01CB01BC01CD010E94C800DC010F
:103A2000CB019EAF8DAF0FC088EC90E09CAF8BAF09
:103A30008BAD9CAD0197F1F79CAF8BAF8DAD9EAD7B
:103A400001979EAF8DAF8DAD9EAD009769F716C003
:103A5000FE01FF9660817181828193810E94C8007E
:103A6000DC01CB019EAF8DAF8DAD9EAD9AAF89AF1E
:103A700089AD9AAD0197F1F79AAF89AF82E00E94C4
:103A8000CD2080E090E0A0E8BFE38DAB9EABAFAB74
:103A9000B8AF6DA97EA98FA998AD20E030E04AEFBC
:103AA00054E40E941309DC01CB0189AB9AABABABA8
:103AB000BCAB69A97AA98BA99CA920E030E040E8B9
:103AC0005FE30E946D0A88232CF481E090E098ABBC
:103AD0008FA73FC069A97AA98BA99CA920E03FEFD5
:103AE0004FE757E40E940D0A18164CF56DA97EA900
:103AF0008FA998AD20E030E040E251E40E94130924
:103B0000DC01CB01BC01CD010E94C800DC01CB016E
:103B100098AB8FA70FC088EC90E09EA78DA78DA5CE
:103B20009EA50197F1F79EA78DA78FA598A901974C
:103B300098AB8FA78FA598A9009769F714C069A9BA
:103B40007AA98BA99CA90E94C800DC01CB0198AB83
:103B50008FA78FA598A99CA78BA78BA59CA501973C
:103B6000F1F79CA78BA786E00E94CD2080E090E033
:103B7000A0E8BFE38FA398A7A9A7BAA76FA178A5CC
:103B800089A59AA520E030E04AEF54E40E94130989
:103B9000DC01CB018BA39CA3ADA3BEA36BA17CA135
:103BA0008DA19EA120E030E040E85FE30E946D0A15
:103BB00088232CF481E090E09AA389A33FC06BA1F5
:103BC0007CA18DA19EA120E03FEF4FE757E40E942A
:103BD0000D0A18164CF56FA178A589A59AA520E0C5
:103BE00030E040E251E40E941309DC01CB01BC014A
:103BF000CD010E94C800DC01CB019AA389A30FC0AC
:103C000088EC90E098A38F8F8F8D98A10197F1F7A2
:103C100098A38F8F89A19AA101979AA389A389A1BB
:103C20009AA1009769F714C06BA17CA18DA19EA1F8
:103C30000E94C800DC01CB019AA389A389A19AA1A3
:103C40009E8F8D8F8D8D9E8D0197F1F79E8F8D8F1D
:103C500080E80E94CD2080E090E0A0E8BFE3898F5B
:103C60009A8FAB8FBC8F698D7A8D8B8D9C8D20E068
:103C700030E04AEF54E40E941309DC01CB018D8B44
:103C80009E8BAF8BB88F6D897E898F89988D20E050
:103C900030E040E85FE30E946D0A88232CF481E065
:103CA00090E09C8B8B8B3FC06D897E898F89988D2E
:103CB00020E03FEF4FE757E40E940D0A18164CF53D
:103CC000698D7A8D8B8D9C8D20E030E040E251E44F
:103CD0000E941309DC01CB01BC01CD010E94C80088
:103CE000DC01CB019C8B8B8B0FC088EC90E09A8B16
:103CF000898B89899A890197F1F79A8B898B8B89AE
:103D00009C8901979C8B8B8B8B899C89009769F789
:103D100014C06D897E898F89988D0E94C800DC014E
:103D2000CB019C8B8B8B8B899C89988B8F878F8504
:103D300098890197F1F7988B8F878CE00E94CD20AE
:103D400080E090E0A0E8BFE38B879C87AD87BE87CB
:103D50006B857C858D859E8520E030E04AEF54E4BC
:103D60000E941309DC01CB018F839887A987BA874A
:103D70006F81788589859A8520E030E040E85FE3AF
:103D80000E946D0A88232CF481E090E09E838D834D
:103D90003FC06F81788589859A8520E03FEF4FE7A6
:103DA00057E40E940D0A18164CF56B857C858D85AD
:103DB0009E8520E030E040E251E40E941309DC01DE
:103DC000CB01BC01CD010E94C800DC01CB019E8368
:103DD0008D830FC088EC90E09C838B838B819C81CA
:103DE0000197F1F79C838B838D819E8101979E8340
:103DF0008D838D819E81009769F714C06F817885CE
:103E000089859A850E94C800DC01CB019E838D8341
:103E10008D819E819A83898389819A810197F1F7A7
:103E20009A838983CC5ADF4F0FB6F894DEBF0FBE5A
:103E3000CDBFCF91DF911F910F910895DF93CF9365
:103E4000CDB7DEB7AB970FB6F894DEBF0FBECDBFD0
:103E50008BA788E061E00E9429238AE061E00E944C
:103E6000292380E090E0A0E4B0E48FA398A7A9A75D
:103E7000BAA76FA178A589A59AA520E030E04AEFFE
:103E800054E40E941309DC01CB018BA39CA3ADA3D6
:103E9000BEA36BA17CA18DA19EA120E030E040E8F3
:103EA0005FE30E946D0A88232CF481E090E09AA3DE
:103EB00089A33FC06BA17CA18DA19EA120E03FEF13
:103EC0004FE757E40E940D0A18164CF56FA178A52C
:103ED00089A59AA520E030E040E251E40E94130950
:103EE000DC01CB01BC01CD010E94C800DC01CB018B
:103EF0009AA389A30FC088EC90E098A38F8F8F8D31
:103F000098A10197F1F798A38F8F89A19AA10197A2
:103F10009AA389A389A19AA1009769F714C06BA1FC
:103F20007CA18DA19EA10E94C800DC01CB019AA3B7
:103F300089A389A19AA19E8F8D8F8D8D9E8D0197CA
:103F4000F1F79E8F8D8FEBE3F0E08FEF808388E0B9
:103F500061E00E94010D8AE061E00E94010D80E0B5
:103F600090E0A0EAB0E4898F9A8FAB8FBC8F698D07
:103F70007A8D8B8D9C8D20E030E04AEF54E40E94D6
:103F80001309DC01CB018D8B9E8BAF8BB88F6D89B4
:103F90007E898F89988D20E030E040E85FE30E94C1
:103FA0006D0A88232CF481E090E09C8B8B8B3FC0C2
:103FB0006D897E898F89988D20E03FEF4FE757E428
:103FC0000E940D0A18164CF5698D7A8D8B8D9C8D8B
:103FD00020E030E040E251E40E941309DC01CB0113
:103FE000BC01CD010E94C800DC01CB019C8B8B8BF6
:103FF0000FC088EC90E09A8B898B89899A89019708
:10400000F1F79A8B898B8B899C8901979C8B8B8B81
:104010008B899C89009769F714C06D897E898F8987
:10402000988D0E94C800DC01CB019C8B8B8B8B8907
:104030009C89988B8F878F8598890197F1F7988B4A
:104040008F87EBE3F0E08BA580838AE060E00E943D
:10405000010D80E090E0A0E8BFE38B879C87AD87EF
:10406000BE876B857C858D859E8520E030E04AEF9C
:1040700054E40E941309DC01CB018F839887A98740
:10408000BA876F81788589859A8520E030E040E89D
:104090005FE30E946D0A88232CF481E090E09E8308
:1040A0008D833FC06F81788589859A8520E03FEFB9
:1040B0004FE757E40E940D0A18164CF56B857C8576
:1040C0008D859E8520E030E040E251E40E94130996
:1040D000DC01CB01BC01CD010E94C800DC01CB0199
:1040E0009E838D830FC088EC90E09C838B838B81B3
:1040F0009C810197F1F79C838B838D819E81019731
:104100009E838D838D819E81009769F714C06F8196
:10411000788589859A850E94C800DC01CB019E8341
:104120008D838D819E819A83898389819A8101976C
:10413000F1F79A838983AB960FB6F894DEBF0FBE72
:10414000CDBFCF91DF910895DF93CF930F92CDB77D
:10415000DEB7898389810E941E1F0F90CF91DF9166
:104160000895DF93CF9300D0CDB7DEB79A838983CC
:104170000AC0E981FA8180810E941E1F89819A818B
:1041800001969A838983E981FA818081882389F75E
:104190000F900F90CF91DF910895DF93CF93CDB71C
:1041A000DEB7AB970FB6F894DEBF0FBECDBF8BA7BF
:1041B00088E061E00E9429238AE061E00E942923CF
:1041C00080E090E0A0E4B0E48FA398A7A9A7BAA7E5
:1041D0006FA178A589A59AA520E030E04AEF54E4C4
:1041E0000E941309DC01CB018BA39CA3ADA3BEA34A
:1041F0006BA17CA18DA19EA120E030E040E85FE3AF
:104200000E946D0A88232CF481E090E09AA389A390
:104210003FC06BA17CA18DA19EA120E03FEF4FE7A5
:1042200057E40E940D0A18164CF56FA178A589A5D0
:104230009AA520E030E040E251E40E941309DC013D
:10424000CB01BC01CD010E94C800DC01CB019AA3C7
:1042500089A30FC088EC90E098A38F8F8F8D98A1D1
:104260000197F1F798A38F8F89A19AA101979AA33B
:1042700089A389A19AA1009769F714C06BA17CA1B9
:104280008DA19EA10E94C800DC01CB019AA389A345
:1042900089A19AA19E8F8D8F8D8D9E8D0197F1F7AB
:1042A0009E8F8D8FEBE3F0E08FEF808388E060E0FE
:1042B0000E94010D8AE061E00E94010D80E090E023
:1042C000A0EAB0E4898F9A8FAB8FBC8F698D7A8D0D
:1042D0008B8D9C8D20E030E04AEF54E40E9413095E
:1042E000DC01CB018D8B9E8BAF8BB88F6D897E8966
:1042F0008F89988D20E030E040E85FE30E946D0AEE
:1043000088232CF481E090E09C8B8B8B3FC06D89DF
:104310007E898F89988D20E03FEF4FE757E40E9418
:104320000D0A18164CF5698D7A8D8B8D9C8D20E0C9
:1043300030E040E251E40E941309DC01CB01BC01F2
:10434000CD010E94C800DC01CB019C8B8B8B0FC080
:1043500088EC90E09A8B898B89899A890197F1F78B
:104360009A8B898B8B899C8901979C8B8B8B8B89F2
:104370009C89009769F714C06D897E898F89988D13
:104380000E94C800DC01CB019C8B8B8B8B899C89A4
:10439000988B8F878F8598890197F1F7988B8F87F6
:1043A000EBE3F0E08BA580838AE060E00E94010DE2
:1043B00080E090E0A0E8BFE38B879C87AD87BE8755
:1043C0006B857C858D859E8520E030E04AEF54E446
:1043D0000E941309DC01CB018F839887A987BA87D4
:1043E0006F81788589859A8520E030E040E85FE339
:1043F0000E946D0A88232CF481E090E09E838D83D7
:104400003FC06F81788589859A8520E03FEF4FE72F
:1044100057E40E940D0A18164CF56B857C858D8536
:104420009E8520E030E040E251E40E941309DC0167
:10443000CB01BC01CD010E94C800DC01CB019E83F1
:104440008D830FC088EC90E09C838B838B819C8153
:104450000197F1F79C838B838D819E8101979E83C9
:104460008D838D819E81009769F714C06F81788557
:1044700089859A850E94C800DC01CB019E838D83CB
:104480008D819E819A83898389819A810197F1F731
:104490009A838983AB960FB6F894DEBF0FBECDBF6B
:1044A000CF91DF910895DF93CF9300D000D0CDB7A7
:1044B000DEB789836A838981282F30E03C832B8390
:1044C0008B819C81009731F02B813C81213031051B
:1044D00031F009C08A8181580E94CD2004C08A81B0
:1044E00081540E94CD200F900F900F900F90CF918C
:1044F000DF910895DF93CF93CDB7DEB72E970FB638
:10450000F894DEBF0FBECDBF8EE00E94CD2080E0CC
:1045100090E0AAE7B4E48B879C87AD87BE876B8564
:104520007C858D859E8520E030E04AEF54E40E9432
:104530001309DC01CB018F839887A987BA876F8124
:10454000788589859A8520E030E040E85FE30E9425
:104550006D0A88232CF481E090E09E838D833FC018
:104560006F81788589859A8520E03FEF4FE757E492
:104570000E940D0A18164CF56B857C858D859E85ED
:1045800020E030E040E251E40E941309DC01CB015D
:10459000BC01CD010E94C800DC01CB019E838D834C
:1045A0000FC088EC90E09C838B838B819C8101976A
:1045B000F1F79C838B838D819E8101979E838D83F0
:1045C0008D819E81009769F714C06F8178858985F8
:1045D0009A850E94C800DC01CB019E838D838D816A
:1045E0009E819A83898389819A810197F1F79A83C1
:1045F000898381E00E94CD202E960FB6F894DEBF0D
:104600000FBECDBFCF91DF910895DF93CF930F926F
:10461000CDB7DEB78983898161E00E942923898132
:1046200061E00E94010D0F90CF91DF910895DF931B
:10463000CF930F92CDB7DEB78983898161E00E9465
:104640002923898160E00E94010D0F90CF91DF91B5
:104650000895DF93CF93CDB7DEB72F970FB6F894B9
:10466000DEBF0FBECDBF8C836D831B828C818032F9
:1046700018F081E08B8311C18D81823018F082E0C7
:104680008B830BC18C8187708A838C8186958695FC
:10469000869589838981282F30E03F872E878E85F4
:1046A0009F858130910509F44FC02E853F852230CA
:1046B00031052CF48E859F85009771F0ECC02E8516
:1046C0003F852230310509F477C08E859F85833080
:1046D000910509F4A9C0DFC08D81282F30E03D8706
:1046E0002C878C859D850097D1F02C853D852130C8
:1046F000310509F0D2C0AAE3B0E0EAE3F0E080813E
:10470000482F8A81282F30E081E090E0022E02C0FD
:10471000880F991F0A94E2F7842B8C93BEC0AAE3FA
:10472000B0E0EAE3F0E08081482F8A81282F30E072
:1047300081E090E0022E02C0880F991F0A94E2F7F0
:10474000809584238C93A9C08D81282F30E03B87EE
:104750002A878A859B850097D1F02A853B85213061
:10476000310509F09AC0A7E3B0E0E7E3F0E080810B
:10477000482F8A81282F30E081E090E0022E02C08D
:10478000880F991F0A94E2F7842B8C9386C0A7E3C5
:10479000B0E0E7E3F0E08081482F8A81282F30E005
:1047A00081E090E0022E02C0880F991F0A94E2F780
:1047B000809584238C9371C08D81282F30E03987B8
:1047C0002887888599850097D1F0288539852130FB
:1047D000310509F062C0A4E3B0E0E4E3F0E08081D9
:1047E000482F8A81282F30E081E090E0022E02C01D
:1047F000880F991F0A94E2F7842B8C934EC0A4E390
:10480000B0E0E4E3F0E08081482F8A81282F30E097
:1048100081E090E0022E02C0880F991F0A94E2F70F
:10482000809584238C9339C08D81282F30E03F837D
:104830002E838E819F810097C9F02E813F81213088
:10484000310559F5A1E3B0E0E1E3F0E08081482FC4
:104850008A81282F30E081E090E0022E02C0880F8C
:10486000991F0A94E2F7842B8C9317C0A1E3B0E060
:10487000E1E3F0E08081482F8A81282F30E081E059
:1048800090E0022E02C0880F991F0A94E2F78095EB
:1048900084238C9302C081E08B838B812F960FB68B
:1048A000F894DEBF0FBECDBFCF91DF910895DF93A7
:1048B000CF93CDB7DEB72F970FB6F894DEBF0FBEFC
:1048C000CDBF8C836D831B828C81803218F081E098
:1048D0008B832BC48D81843018F083E08B8325C4B7
:1048E0008C8187708A838C8186958695869589834D
:1048F0008D81282F30E03F872E874E855F854130A0
:10490000510509F416C18E859F858230910534F4D6
:104910002E853F852115310571F005C44E855F85D3
:104920004230510509F4FFC18E859F858330910582
:1049300009F4FBC2F8C38981282F30E03D872C871A
:104940004C855D854130510509F44EC08C859D85AF
:104950008230910534F42C853D852115310571F0A7
:10496000E5C04C855D854230510509F473C08C85E6
:104970009D858330910509F4A3C0D8C0EAE3F0E037
:104980008081482F50E08A81282F30E081E090E03C
:1049900002C0880F991F2A95E2F79A01282339232C
:1049A0008A81882F90E0A90102C0559547958A9584
:1049B000E2F7CA010097A9F4ABE3B0E0EBE3F0E063
:1049C0008081482F8A81282F30E081E090E0022EFC
:1049D00002C0880F991F0A94E2F7809584238C9374
:1049E000A4C382E08B83A1C3E7E3F0E08081482F7A
:1049F00050E08A81282F30E081E090E002C0880FEB
:104A0000991F2A95E2F79A01282339238A81882F52
:104A100090E0A90102C0559547958A95E2F7CA0131
:104A20000097A9F4A8E3B0E0E8E3F0E08081482F24
:104A30008A81282F30E081E090E0022E02C0880FAA
:104A4000991F0A94E2F7809584238C936EC382E0C9
:104A50008B836BC3E4E3F0E08081482F50E08A81D0
:104A6000282F30E081E090E002C0880F991F2A953E
:104A7000E2F79A01282339238A81882F90E0A9013F
:104A800002C0559547958A95E2F7CA010097A9F4A7
:104A9000A5E3B0E0E5E3F0E08081482F8A81282F8C
:104AA00030E081E090E0022E02C0880F991F0A9446
:104AB000E2F7809584238C9338C382E08B8335C3DF
:104AC000E1E3F0E08081482F50E08A81282F30E038
:104AD00081E090E002C0880F991F2A95E2F79A01C1
:104AE000282339238A81882F90E0A90102C0559597
:104AF00047958A95E2F7CA010097A9F4A2E3B0E0CE
:104B0000E2E3F0E08081482F8A81282F30E081E0C5
:104B100090E0022E02C0880F991F0A94E2F7809558
:104B200084238C9302C382E08B83FFC282E08B8359
:104B3000FCC28981282F30E03B872A874A855B8524
:104B40004130510509F44DC08A859B85823091051D
:104B500034F42A853B852115310571F0E1C04A8581
:104B60005B854230510509F471C08A859B8583308D
:104B7000910509F4A0C0D4C0EAE3F0E08081482F99
:104B800050E08A81282F30E081E090E002C0880F59
:104B9000991F2A95E2F79A01282339238A81882FC1
:104BA00090E0A90102C0559547958A95E2F7CA01A0
:104BB0000097A1F4ABE3B0E0EBE3F0E08081482F95
:104BC0008A81282F30E081E090E0022E02C0880F19
:104BD000991F0A94E2F7842B8C93A7C282E08B83FF
:104BE000A4C2E7E3F0E08081482F50E08A81282FBB
:104BF00030E081E090E002C0880F991F2A95E2F72B
:104C00009A01282339238A81882F90E0A90102C0C4
:104C1000559547958A95E2F7CA010097A1F4A8E354
:104C2000B0E0E8E3F0E08081482F8A81282F30E06F
:104C300081E090E0022E02C0880F991F0A94E2F7EB
:104C4000842B8C9372C282E08B836FC2E4E3F0E02A
:104C50008081482F50E08A81282F30E081E090E069
:104C600002C0880F991F2A95E2F79A012823392359
:104C70008A81882F90E0A90102C0559547958A95B1
:104C8000E2F7CA010097A1F4A5E3B0E0E5E3F0E0A4
:104C90008081482F8A81282F30E081E090E0022E29
:104CA00002C0880F991F0A94E2F7842B8C933DC2AF
:104CB00082E08B833AC2E1E3F0E08081482F50E04C
:104CC0008A81282F30E081E090E002C0880F991F90
:104CD0002A95E2F79A01282339238A81882F90E0C8
:104CE000A90102C0559547958A95E2F7CA01009738
:104CF000A1F4A2E3B0E0E2E3F0E08081482F8A81F2
:104D0000282F30E081E090E0022E02C0880F991F2A
:104D10000A94E2F7842B8C9308C282E08B8305C24D
:104D200082E08B8302C28981282F30E0398728876F
:104D3000488559854130510509F44FC088859985CA
:104D40008230910534F4288539852115310571F0BB
:104D5000E9C0488559854230510509F475C08885F8
:104D600099858330910509F4A6C0DCC0EAE3F0E040
:104D70008081482F50E08A81282F30E081E090E048
:104D800002C0880F991F2A95E2F79A012823392338
:104D90008A81882F90E0A90102C0559547958A9590
:104DA000E2F7CA0181309105A9F4ABE3B0E0EBE38F
:104DB000F0E08081482F8A81282F30E081E090E068
:104DC000022E02C0880F991F0A94E2F7809584236F
:104DD0008C93ABC182E08B83A8C1E7E3F0E08081D4
:104DE000482F50E08A81282F30E081E090E002C017
:104DF000880F991F2A95E2F79A01282339238A817F
:104E0000882F90E0A90102C0559547958A95E2F751
:104E1000CA0181309105A9F4A8E3B0E0E8E3F0E02D
:104E20008081482F8A81282F30E081E090E0022E97
:104E300002C0880F991F0A94E2F7809584238C930F
:104E400074C182E08B8371C1E4E3F0E08081482F7C
:104E500050E08A81282F30E081E090E002C0880F86
:104E6000991F2A95E2F79A01282339238A81882FEE
:104E700090E0A90102C0559547958A95E2F7CA01CD
:104E800081309105A9F4A5E3B0E0E5E3F0E080818D
:104E9000482F8A81282F30E081E090E0022E02C066
:104EA000880F991F0A94E2F7809584238C933DC163
:104EB00082E08B833AC1E1E3F0E08081482F50E04B
:104EC0008A81282F30E081E090E002C0880F991F8E
:104ED0002A95E2F79A01282339238A81882F90E0C6
:104EE000A90102C0559547958A95E2F7CA0181301C
:104EF0009105A9F4A2E3B0E0E2E3F0E08081482F5D
:104F00008A81282F30E081E090E0022E02C0880FD5
:104F1000991F0A94E2F7809584238C9306C182E05E
:104F20008B8303C182E08B8300C18981282F30E00D
:104F30003F832E834E815F814130510509F44EC07D
:104F40008E819F818230910534F42E813F8121151D
:104F5000310571F0E5C04E815F814230510509F4A1
:104F600073C08E819F818330910509F4A3C0D8C09E
:104F7000EAE3F0E08081482F50E08A81282F30E07A
:104F800081E090E002C0880F991F2A95E2F79A010C
:104F9000282339238A81882F90E0A90102C05595E2
:104FA00047958A95E2F7CA0181309105A1F4ABE3F8
:104FB000B0E0EBE3F0E08081482F8A81282F30E0D9
:104FC00081E090E0022E02C0880F991F0A94E2F758
:104FD000842B8C93AAC082E08B83A7C0E7E3F0E028
:104FE0008081482F50E08A81282F30E081E090E0D6
:104FF00002C0880F991F2A95E2F79A0128233923C6
:105000008A81882F90E0A90102C0559547958A951D
:10501000E2F7CA0181309105A1F4A8E3B0E0E8E32A
:10502000F0E08081482F8A81282F30E081E090E0F5
:10503000022E02C0880F991F0A94E2F7842B8C93EA
:1050400074C082E08B8371C0E4E3F0E08081482F7C
:1050500050E08A81282F30E081E090E002C0880F84
:10506000991F2A95E2F79A01282339238A81882FEC
:1050700090E0A90102C0559547958A95E2F7CA01CB
:1050800081309105A1F4A5E3B0E0E5E3F0E0808193
:10509000482F8A81282F30E081E090E0022E02C064
:1050A000880F991F0A94E2F7842B8C933EC082E00C
:1050B0008B833BC0E1E3F0E08081482F50E08A81A0
:1050C000282F30E081E090E002C0880F991F2A95D8
:1050D000E2F79A01282339238A81882F90E0A901D9
:1050E00002C0559547958A95E2F7CA01813091052E
:1050F000A1F4A2E3B0E0E2E3F0E08081482F8A81EE
:10510000282F30E081E090E0022E02C0880F991F26
:105110000A94E2F7842B8C9308C082E08B8305C04D
:1051200082E08B8302C083E08B838B812F960FB646
:10513000F894DEBF0FBECDBFCF91DF910895DF930E
:10514000CF93CDB7DEB7AE970FB6F894DEBF0FBEE4
:10515000CDBF0E94E11420E835E240E050E060E07D
:1051600070E080E090E00E941C2B0E94412A0E9487
:1051700099118FE161E00E94292389E061E00E949A
:1051800029238BE160E00E94292389E060E00E94EE
:10519000010D1F8218869E01275F3F4F39A328A368
:1051A00080E690E09BA38AA397E09CA3EAA1FBA1E1
:1051B00000802AA13BA12F5F3F4F3BA32AA3E8A178
:1051C000F9A1008228A139A12F5F3F4F39A328A35D
:1051D0003CA131503CA38CA1882341F7FE0170967D
:1051E000FEA3EDA327E630E038A72FA337E039A7C9
:1051F000EFA1F8A500802FA138A52F5F3F4F38A75A
:105200002FA3EDA1FEA100822DA13EA12F5F3F4F54
:105210003EA32DA339A5315039A789A5882341F78D
:10522000FE017796FBA7EAA72EE630E03DA72CA764
:1052300037E03EA7ECA5FDA500802CA53DA52F5F7E
:105240003F4F3DA72CA7EAA5FBA500822AA53BA5B9
:105250002F5F3F4F3BA72AA73EA531503EA78EA503
:10526000882341F7CE0109969E838D83CE01409617
:105270009C838B83CE0147969A838983CE010896BF
:105280000E94CD2B88858A3709F475C088858230C5
:1052900008F46FC088858B3008F06BC08885E82FD4
:1052A000F0E0FF8FEE8F2E8D3F8D2230310509F11A
:1052B0008E8D9F8D83309105A9F1EE8DFF8DE130AC
:1052C000F10509F048C080E065E00E94411B8D8136
:1052D0009E810E949F1981E067E00E94411B85E347
:1052E0000E94921980E30E94921982E30E946F2A21
:1052F0003DC080E065E00E94411B8B819C810E9443
:105300009F1981E067E00E94411B81E30E9492198E
:1053100085E30E94921980E30E94921986E90E9417
:105320006F2A24C080E065E00E94411B89819A8138
:105330000E949F1981E067E00E94411B82E30E9466
:10534000921985E30E94921980E30E9492198AEFD4
:105350000E946F2A0BC080E064E00E94411B888598
:10536000805D0E94921980E00E946F2A0E94681B53
:1053700018868AE788879E01295F3F4F8BE1B90134
:105380000E94BC0E09C089E061E00E94010D1092EC
:105390009E0110929F011F828F818130A1F308C06E
:1053A00089E060E00E94010D10929E0110929F0121
:1053B00080919E018E3308F461CF80919F018130EE
:1053C00079F35CCF1F920F920FB60F9211248F9337
:1053D000DF93CF93CDB7DEB780919E018F5F80932F
:1053E0009E0180919E018A3F28F081E080939F0179
:1053F00010929E01CF91DF918F910F900FBE0F9071
:105400001F901895DF93CF93CDB7DEB7A3E5B0E03B
:10541000E3E5F0E0808180648C93A3E5B0E0E3E510
:10542000F0E0808188608C93A3E5B0E0E3E5F0E0F4
:10543000808180628C93A3E5B0E0E3E5F0E08081B9
:1054400081608C93A3E5B0E0E3E5F0E080818460C7
:105450008C938BE061E00E942923CF91DF91089526
:10546000DF93CF9300D0CDB7DEB78A831982ECE506
:10547000F0E08A81808389810F900F90CF91DF9136
:105480000895DF93CF93CDB7DEB7A5E4B0E0E5E4B0
:10549000F0E0808180648C93A5E4B0E0E5E4F0E086
:1054A000808188608C93A5E4B0E0E5E4F0E0808141
:1054B00080628C93A5E4B0E0E5E4F0E08081826056
:1054C0008C93A5E4B0E0E5E4F0E0808181608C930A
:1054D0008BE061E00E942923CF91DF910895DF9353
:1054E000CF9300D0CDB7DEB78A831982E3E4F0E032
:1054F0008A81808389810F900F90CF91DF910895E9
:10550000DF93CF93CDB7DEB7ADE2B0E0EDE2F0E0F0
:10551000808180688C93AFE5B0E0EFE5F0E08081BA
:1055200080688C93ADE2B0E0EDE2F0E080818064D1
:105530008C93ADE2B0E0EDE2F0E0808180618C938D
:105540008DE061E00E9429238FE061E00E94292321
:105550008CE061E00E942923ADE2B0E0EDE2F0E0F2
:10556000808181608C93CF91DF910895DF93CF93F9
:10557000CDB7DEB7ADE2B0E0EDE2F0E0808180686B
:105580008C93AFE5B0E0EFE5F0E0808180688C932C
:10559000ADE2B0E0EDE2F0E0808180648C938EE0DB
:1055A00061E00E942923ADE2B0E0EDE2F0E080810D
:1055B00081608C93CF91DF910895DF93CF9300D0DA
:1055C000CDB7DEB78A838CE060E00E94010DEFE288
:1055D000F0E08A818083EEE2F0E08081881F8827F6
:1055E000881F882F90E090700097A9F3EFE2F0E019
:1055F000808189830F900F90CF91DF910895DF9381
:10560000CF9300D0CDB7DEB79A838983EEE2F0E086
:105610008081881F8827881F882F90E090700097CE
:10562000A9F3EFE2F0E08081E981FA8180830F90B5
:105630000F90CF91DF9108952F923F924F925F92FA
:105640006F927F928F929F92AF92BF92CF92DF9292
:10565000EF92FF920F931F93DF93CF93CDB7DEB7F7
:105660002A970FB6F894DEBF0FBECDBF2B833C83C5
:105670004D835E836F83788789879A872B813C81EE
:105680004D815E816F81788589859A8504E00E94CD
:105690004900A22EB32EC42ED52EE62EF72E082FAB
:1056A000192F2A2C3B2C4C2C5D2C6E2C7F2C802E01
:1056B000912E20E032E14AE750E060E070E080E0C7
:1056C00090E0A22CB32CC42CD52CE62CF72C082D62
:1056D000192D0E94F400A22EB32EC42ED52EE62E34
:1056E000F72E082F192F2A2D3B2D4C2D5D2D6E2DB9
:1056F0007F2D802F912FC90101979A838983E0E440
:10570000F0E089819A81892F99278083E9E2F0E08E
:1057100089818083AAE2B0E0EAE2F0E080818860DB
:105720008C93AAE2B0E0EAE2F0E0808180618C93A1
:10573000AAE2B0E0EAE2F0E0808184608C93A0E429
:10574000B0E0E0E4F0E0808180688C93A0E4B0E019
:10575000E0E4F0E0808182608C93A0E4B0E0E0E4DB
:10576000F0E0808184608C932A960FB6F894DEBFB7
:105770000FBECDBFCF91DF911F910F91FF90EF90A2
:10578000DF90CF90BF90AF909F908F907F906F9061
:105790005F904F903F902F900895DF93CF9300D06C
:1057A000CDB7DEB79A838983EBE2F0E08081881F72
:1057B0008827881F882F90E090700097A9F3ECE26B
:1057C000F0E08081E981FA8180830F900F90CF9182
:1057D000DF910895DF93CF930F92CDB7DEB7898322
:1057E000EBE2F0E08081882F90E0807290709595D8
:1057F0008795959587959595879595958795959591
:105800008795009769F3ECE2F0E0898180830F903F
:10581000CF91DF910895629FD001739FF001829F25
:10582000E00DF11D649FE00DF11D929FF00D839F2F
:10583000F00D749FF00D659FF00D9927729FB00DCC
:10584000E11DF91F639FB00DE11DF91FBD01CF01DF
:1058500011240895A1E21A2EAA1BBB1BFD010DC045
:10586000AA1FBB1FEE1FFF1FA217B307E407F50710
:1058700020F0A21BB30BE40BF50B661F771F881FEC
:10588000991F1A9469F760957095809590959B0182
:10589000AC01BD01CF0108952F923F924F925F92CC
:1058A0006F927F928F929F92AF92BF92CF92DF9230
:1058B000EF92FF920F931F93CF93DF93CDB7DEB795
:1058C000CA1BDB0B0FB6F894DEBF0FBECDBF099429
:1058D0002A88398848885F846E847D848C849B8480
:1058E000AA84B984C884DF80EE80FD800C811B818E
:1058F000AA81B981CE0FD11D0FB6F894DEBF0FBEBD
:0A590000CDBFED010895F894FFCF2C
:10590A004C4556454C31004C4556454C32004C45A9
:10591A0056454C3300000000000000000000010260
:10592A000203030303040404040404040405050530
:10593A00050505050505050505050505050606060A
:10594A0006060606060606060606060606060606ED
:10595A0006060606060606060606060606070707DA
:10596A0007070707070707070707070707070707BD
:10597A0007070707070707070707070707070707AD
:10598A00070707070707070707070707070707079D
:10599A00070707070707070707070707070808088A
:1059AA00080808080808080808080808080808086D
:1059BA00080808080808080808080808080808085D
:1059CA00080808080808080808080808080808084D
:1059DA00080808080808080808080808080808083D
:1059EA00080808080808080808080808080808082D
:1059FA00080808080808080808080808080808081D
:105A0A00080808080808080808080808080808080C
:105A1A0008080808080808080808080808070809FC
:105A2A002F0405062A0102032D4300452B07080906
:0E5A3A002F0405062A0102032D4300452B0010
:00000001FF
